{"abi":[{"type":"constructor","inputs":[{"name":"_feeRecipient","type":"address","internalType":"address"}],"stateMutability":"nonpayable"},{"type":"function","name":"cancelPlan","inputs":[{"name":"planId","type":"uint256","internalType":"uint256"}],"outputs":[],"stateMutability":"nonpayable"},{"type":"function","name":"cancelSubscription","inputs":[{"name":"subscriptionId","type":"uint256","internalType":"uint256"}],"outputs":[],"stateMutability":"nonpayable"},{"type":"function","name":"cancelSubscriptionAsMerchant","inputs":[{"name":"subscriptionId","type":"uint256","internalType":"uint256"}],"outputs":[],"stateMutability":"nonpayable"},{"type":"function","name":"createPlan","inputs":[{"name":"token","type":"address","internalType":"address"},{"name":"amount","type":"uint256","internalType":"uint256"},{"name":"interval","type":"uint256","internalType":"uint256"}],"outputs":[{"name":"","type":"uint256","internalType":"uint256"}],"stateMutability":"nonpayable"},{"type":"function","name":"executePayment","inputs":[{"name":"subscriptionId","type":"uint256","internalType":"uint256"}],"outputs":[],"stateMutability":"nonpayable"},{"type":"function","name":"feeBps","inputs":[],"outputs":[{"name":"","type":"uint256","internalType":"uint256"}],"stateMutability":"view"},{"type":"function","name":"feeRecipient","inputs":[],"outputs":[{"name":"","type":"address","internalType":"address"}],"stateMutability":"view"},{"type":"function","name":"owner","inputs":[],"outputs":[{"name":"","type":"address","internalType":"address"}],"stateMutability":"view"},{"type":"function","name":"planCount","inputs":[],"outputs":[{"name":"","type":"uint256","internalType":"uint256"}],"stateMutability":"view"},{"type":"function","name":"plans","inputs":[{"name":"","type":"uint256","internalType":"uint256"}],"outputs":[{"name":"token","type":"address","internalType":"address"},{"name":"amount","type":"uint256","internalType":"uint256"},{"name":"interval","type":"uint256","internalType":"uint256"},{"name":"merchant","type":"address","internalType":"address"},{"name":"active","type":"bool","internalType":"bool"}],"stateMutability":"view"},{"type":"function","name":"setFeeBps","inputs":[{"name":"_feeBps","type":"uint256","internalType":"uint256"}],"outputs":[],"stateMutability":"nonpayable"},{"type":"function","name":"setFeeRecipient","inputs":[{"name":"_feeRecipient","type":"address","internalType":"address"}],"outputs":[],"stateMutability":"nonpayable"},{"type":"function","name":"subscribe","inputs":[{"name":"planId","type":"uint256","internalType":"uint256"}],"outputs":[{"name":"","type":"uint256","internalType":"uint256"}],"stateMutability":"nonpayable"},{"type":"function","name":"subscriptionCount","inputs":[],"outputs":[{"name":"","type":"uint256","internalType":"uint256"}],"stateMutability":"view"},{"type":"function","name":"subscriptions","inputs":[{"name":"","type":"uint256","internalType":"uint256"}],"outputs":[{"name":"planId","type":"uint256","internalType":"uint256"},{"name":"subscriber","type":"address","internalType":"address"},{"name":"nextPayment","type":"uint256","internalType":"uint256"},{"name":"active","type":"bool","internalType":"bool"}],"stateMutability":"view"},{"type":"event","name":"FeeBpsUpdated","inputs":[{"name":"oldBps","type":"uint256","indexed":false,"internalType":"uint256"},{"name":"newBps","type":"uint256","indexed":false,"internalType":"uint256"}],"anonymous":false},{"type":"event","name":"FeeRecipientUpdated","inputs":[{"name":"oldRecipient","type":"address","indexed":true,"internalType":"address"},{"name":"newRecipient","type":"address","indexed":true,"internalType":"address"}],"anonymous":false},{"type":"event","name":"PaymentExecuted","inputs":[{"name":"subscriptionId","type":"uint256","indexed":true,"internalType":"uint256"},{"name":"amount","type":"uint256","indexed":false,"internalType":"uint256"},{"name":"fee","type":"uint256","indexed":false,"internalType":"uint256"}],"anonymous":false},{"type":"event","name":"PlanCancelled","inputs":[{"name":"planId","type":"uint256","indexed":true,"internalType":"uint256"}],"anonymous":false},{"type":"event","name":"PlanCreated","inputs":[{"name":"planId","type":"uint256","indexed":true,"internalType":"uint256"},{"name":"merchant","type":"address","indexed":true,"internalType":"address"},{"name":"token","type":"address","indexed":false,"internalType":"address"},{"name":"amount","type":"uint256","indexed":false,"internalType":"uint256"},{"name":"interval","type":"uint256","indexed":false,"internalType":"uint256"}],"anonymous":false},{"type":"event","name":"Subscribed","inputs":[{"name":"subscriptionId","type":"uint256","indexed":true,"internalType":"uint256"},{"name":"planId","type":"uint256","indexed":true,"internalType":"uint256"},{"name":"subscriber","type":"address","indexed":true,"internalType":"address"}],"anonymous":false},{"type":"event","name":"SubscriptionCancelled","inputs":[{"name":"subscriptionId","type":"uint256","indexed":true,"internalType":"uint256"}],"anonymous":false},{"type":"error","name":"AddressEmptyCode","inputs":[{"name":"target","type":"address","internalType":"address"}]},{"type":"error","name":"AddressInsufficientBalance","inputs":[{"name":"account","type":"address","internalType":"address"}]},{"type":"error","name":"FailedInnerCall","inputs":[]},{"type":"error","name":"SafeERC20FailedOperation","inputs":[{"name":"token","type":"address","internalType":"address"}]}],"bytecode":{"object":"0x6080604052606460025534801562000015575f80fd5b50604051620023b8380380620023b883398181016040528101906200003b919062000197565b5f73ffffffffffffffffffffffffffffffffffffffff168173ffffffffffffffffffffffffffffffffffffffff1603620000ac576040517f08c379a0000000000000000000000000000000000000000000000000000000008152600401620000a39062000225565b60405180910390fd5b335f806101000a81548173ffffffffffffffffffffffffffffffffffffffff021916908373ffffffffffffffffffffffffffffffffffffffff1602179055508060015f6101000a81548173ffffffffffffffffffffffffffffffffffffffff021916908373ffffffffffffffffffffffffffffffffffffffff1602179055505062000245565b5f80fd5b5f73ffffffffffffffffffffffffffffffffffffffff82169050919050565b5f620001618262000136565b9050919050565b620001738162000155565b81146200017e575f80fd5b50565b5f81519050620001918162000168565b92915050565b5f60208284031215620001af57620001ae62000132565b5b5f620001be8482850162000181565b91505092915050565b5f82825260208201905092915050565b7f496e76616c69642066656520726563697069656e7400000000000000000000005f82015250565b5f6200020d601583620001c7565b91506200021a82620001d7565b602082019050919050565b5f6020820190508181035f8301526200023e81620001ff565b9050919050565b61216580620002535f395ff3fe608060405234801561000f575f80fd5b50600436106100f3575f3560e01c80633f259ce3116100955780638da5cb5b116100645780638da5cb5b1461025e578063b16206161461027c578063e74b981b146102b0578063e95fc90f146102cc576100f3565b80633f259ce3146101ec578063469048401461020857806372c27b621461022657806380d6664c14610242576100f3565b806321235083116100d1578063212350831461016157806324a9d8531461017d5780632d5bbf601461019b578063382d39bb146101ce576100f3565b80630f574ba7146100f7578063162a0cf814610127578063173b6d9014610143575b5f80fd5b610111600480360381019061010c9190611761565b6102fc565b60405161011e919061179b565b60405180910390f35b610141600480360381019061013c9190611761565b61066e565b005b61014b610a0e565b604051610158919061179b565b60405180910390f35b61017b60048036038101906101769190611761565b610a14565b005b610185610b05565b604051610192919061179b565b60405180910390f35b6101b560048036038101906101b09190611761565b610b0b565b6040516101c5949392919061180d565b60405180910390f35b6101d6610b62565b6040516101e3919061179b565b60405180910390f35b61020660048036038101906102019190611761565b610b68565b005b610210610dc6565b60405161021d9190611850565b60405180910390f35b610240600480360381019061023b9190611761565b610deb565b005b61025c60048036038101906102579190611761565b610e7d565b005b610266610f6f565b6040516102739190611850565b60405180910390f35b61029660048036038101906102919190611761565b610f92565b6040516102a7959493929190611869565b60405180910390f35b6102ca60048036038101906102c591906118e4565b61100f565b005b6102e660048036038101906102e1919061190f565b611143565b6040516102f3919061179b565b60405180910390f35b5f8060055f8481526020019081526020015f206040518060a00160405290815f82015f9054906101000a900473ffffffffffffffffffffffffffffffffffffffff1673ffffffffffffffffffffffffffffffffffffffff1673ffffffffffffffffffffffffffffffffffffffff1681526020016001820154815260200160028201548152602001600382015f9054906101000a900473ffffffffffffffffffffffffffffffffffffffff1673ffffffffffffffffffffffffffffffffffffffff1673ffffffffffffffffffffffffffffffffffffffff1681526020016003820160149054906101000a900460ff16151515158152505090508060800151610438576040517f08c379a000000000000000000000000000000000000000000000000000000000815260040161042f906119b9565b60405180910390fd5b5f612710600254836020015161044e9190611a04565b6104589190611a72565b90505f81836020015161046b9190611aa2565b90505f60045f81548092919061048090611ad5565b91905055905060405180608001604052808781526020013373ffffffffffffffffffffffffffffffffffffffff1681526020018560400151426104c39190611b1c565b81526020016001151581525060065f8381526020019081526020015f205f820151815f01556020820151816001015f6101000a81548173ffffffffffffffffffffffffffffffffffffffff021916908373ffffffffffffffffffffffffffffffffffffffff160217905550604082015181600201556060820151816003015f6101000a81548160ff02191690831515021790555090505061058e33856060015184875f015173ffffffffffffffffffffffffffffffffffffffff166113d5909392919063ffffffff16565b6105df3360015f9054906101000a900473ffffffffffffffffffffffffffffffffffffffff1685875f015173ffffffffffffffffffffffffffffffffffffffff166113d5909392919063ffffffff16565b3373ffffffffffffffffffffffffffffffffffffffff1686827f719d57359948c2c6f2a923516c19aba22b490e924879b674c1d6371bb6541f1760405160405180910390a4807fb5287fd929180595909b1e43982aa47d5b64f7920ccf127ea155b7736cc4259585602001518560405161065a929190611b4f565b60405180910390a280945050505050919050565b5f60065f8381526020019081526020015f209050806003015f9054906101000a900460ff166106d2576040517f08c379a00000000000000000000000000000000000000000000000000000000081526004016106c990611bc0565b60405180910390fd5b8060020154421015610719576040517f08c379a000000000000000000000000000000000000000000000000000000000815260040161071090611c28565b60405180910390fd5b5f60055f835f015481526020019081526020015f206040518060a00160405290815f82015f9054906101000a900473ffffffffffffffffffffffffffffffffffffffff1673ffffffffffffffffffffffffffffffffffffffff1673ffffffffffffffffffffffffffffffffffffffff1681526020016001820154815260200160028201548152602001600382015f9054906101000a900473ffffffffffffffffffffffffffffffffffffffff1673ffffffffffffffffffffffffffffffffffffffff1673ffffffffffffffffffffffffffffffffffffffff1681526020016003820160149054906101000a900460ff1615151515815250509050806080015161086b575f826003015f6101000a81548160ff021916908315150217905550827fbd2bcea75d16a85f005cd83447e0de57341bf926fe7419e6d553663e91ab4da760405160405180910390a25050610a0b565b5f61271060025483602001516108819190611a04565b61088b9190611a72565b90505f81836020015161089e9190611aa2565b90505f8460020154426108b19190611aa2565b90505f60018560400151836108c69190611a72565b6108d09190611b1c565b90508460400151816108e29190611a04565b866002015f8282546108f49190611b1c565b92505081905550610952866001015f9054906101000a900473ffffffffffffffffffffffffffffffffffffffff16866060015185885f015173ffffffffffffffffffffffffffffffffffffffff166113d5909392919063ffffffff16565b6109c6866001015f9054906101000a900473ffffffffffffffffffffffffffffffffffffffff1660015f9054906101000a900473ffffffffffffffffffffffffffffffffffffffff1686885f015173ffffffffffffffffffffffffffffffffffffffff166113d5909392919063ffffffff16565b867fb5287fd929180595909b1e43982aa47d5b64f7920ccf127ea155b7736cc425958660200151866040516109fc929190611b4f565b60405180910390a25050505050505b50565b60045481565b5f60065f8381526020019081526020015f2090503373ffffffffffffffffffffffffffffffffffffffff16816001015f9054906101000a900473ffffffffffffffffffffffffffffffffffffffff1673ffffffffffffffffffffffffffffffffffffffff1614610ab9576040517f08c379a0000000000000000000000000000000000000000000000000000000008152600401610ab090611c90565b60405180910390fd5b5f816003015f6101000a81548160ff021916908315150217905550817fbd2bcea75d16a85f005cd83447e0de57341bf926fe7419e6d553663e91ab4da760405160405180910390a25050565b60025481565b6006602052805f5260405f205f91509050805f015490806001015f9054906101000a900473ffffffffffffffffffffffffffffffffffffffff1690806002015490806003015f9054906101000a900460ff16905084565b60035481565b5f60065f8381526020019081526020015f2090505f73ffffffffffffffffffffffffffffffffffffffff16816001015f9054906101000a900473ffffffffffffffffffffffffffffffffffffffff1673ffffffffffffffffffffffffffffffffffffffff1603610c0d576040517f08c379a0000000000000000000000000000000000000000000000000000000008152600401610c0490611cf8565b60405180910390fd5b5f60055f835f015481526020019081526020015f206040518060a00160405290815f82015f9054906101000a900473ffffffffffffffffffffffffffffffffffffffff1673ffffffffffffffffffffffffffffffffffffffff1673ffffffffffffffffffffffffffffffffffffffff1681526020016001820154815260200160028201548152602001600382015f9054906101000a900473ffffffffffffffffffffffffffffffffffffffff1673ffffffffffffffffffffffffffffffffffffffff1673ffffffffffffffffffffffffffffffffffffffff1681526020016003820160149054906101000a900460ff16151515158152505090503373ffffffffffffffffffffffffffffffffffffffff16816060015173ffffffffffffffffffffffffffffffffffffffff1614610d79576040517f08c379a0000000000000000000000000000000000000000000000000000000008152600401610d7090611d60565b60405180910390fd5b5f826003015f6101000a81548160ff021916908315150217905550827fbd2bcea75d16a85f005cd83447e0de57341bf926fe7419e6d553663e91ab4da760405160405180910390a2505050565b60015f9054906101000a900473ffffffffffffffffffffffffffffffffffffffff1681565b610df3611457565b6101f4811115610e38576040517f08c379a0000000000000000000000000000000000000000000000000000000008152600401610e2f90611dc8565b60405180910390fd5b7f5ec5620e288c4be955ccb6cfb3d55431a8fed5c4c96ffacc4b9506360695f64e60025482604051610e6b929190611b4f565b60405180910390a18060028190555050565b5f60055f8381526020019081526020015f2090503373ffffffffffffffffffffffffffffffffffffffff16816003015f9054906101000a900473ffffffffffffffffffffffffffffffffffffffff1673ffffffffffffffffffffffffffffffffffffffff1614610f22576040517f08c379a0000000000000000000000000000000000000000000000000000000008152600401610f1990611d60565b60405180910390fd5b5f8160030160146101000a81548160ff021916908315150217905550817f09f4c2fd13cc57768b21af5847536074d3fab1d1dfe1e382d9259c516945ea6d60405160405180910390a25050565b5f8054906101000a900473ffffffffffffffffffffffffffffffffffffffff1681565b6005602052805f5260405f205f91509050805f015f9054906101000a900473ffffffffffffffffffffffffffffffffffffffff1690806001015490806002015490806003015f9054906101000a900473ffffffffffffffffffffffffffffffffffffffff16908060030160149054906101000a900460ff16905085565b611017611457565b5f73ffffffffffffffffffffffffffffffffffffffff168173ffffffffffffffffffffffffffffffffffffffff1603611085576040517f08c379a000000000000000000000000000000000000000000000000000000000815260040161107c90611e30565b60405180910390fd5b8073ffffffffffffffffffffffffffffffffffffffff1660015f9054906101000a900473ffffffffffffffffffffffffffffffffffffffff1673ffffffffffffffffffffffffffffffffffffffff167faaebcf1bfa00580e41d966056b48521fa9f202645c86d4ddf28113e617c1b1d360405160405180910390a38060015f6101000a81548173ffffffffffffffffffffffffffffffffffffffff021916908373ffffffffffffffffffffffffffffffffffffffff16021790555050565b5f8073ffffffffffffffffffffffffffffffffffffffff168473ffffffffffffffffffffffffffffffffffffffff16036111b2576040517f08c379a00000000000000000000000000000000000000000000000000000000081526004016111a990611e98565b60405180910390fd5b5f83116111f4576040517f08c379a00000000000000000000000000000000000000000000000000000000081526004016111eb90611f00565b60405180910390fd5b5f8211611236576040517f08c379a000000000000000000000000000000000000000000000000000000000815260040161122d90611f68565b60405180910390fd5b5f60035f81548092919061124990611ad5565b9190505590506040518060a001604052808673ffffffffffffffffffffffffffffffffffffffff1681526020018581526020018481526020013373ffffffffffffffffffffffffffffffffffffffff1681526020016001151581525060055f8381526020019081526020015f205f820151815f015f6101000a81548173ffffffffffffffffffffffffffffffffffffffff021916908373ffffffffffffffffffffffffffffffffffffffff16021790555060208201518160010155604082015181600201556060820151816003015f6101000a81548173ffffffffffffffffffffffffffffffffffffffff021916908373ffffffffffffffffffffffffffffffffffffffff16021790555060808201518160030160146101000a81548160ff0219169083151502179055509050503373ffffffffffffffffffffffffffffffffffffffff16817fe67fce1f0b05ec0cc46f99e5a9b0a43bffde3c9c95f1457d630e29c180311a7e8787876040516113c293929190611f86565b60405180910390a3809150509392505050565b611451848573ffffffffffffffffffffffffffffffffffffffff166323b872dd86868660405160240161140a93929190611fbb565b604051602081830303815290604052915060e01b6020820180517bffffffffffffffffffffffffffffffffffffffffffffffffffffffff83818316178352505050506114e6565b50505050565b5f8054906101000a900473ffffffffffffffffffffffffffffffffffffffff1673ffffffffffffffffffffffffffffffffffffffff163373ffffffffffffffffffffffffffffffffffffffff16146114e4576040517f08c379a00000000000000000000000000000000000000000000000000000000081526004016114db9061203a565b60405180910390fd5b565b5f611510828473ffffffffffffffffffffffffffffffffffffffff1661157b90919063ffffffff16565b90505f8151141580156115345750808060200190518101906115329190612082565b155b1561157657826040517f5274afe700000000000000000000000000000000000000000000000000000000815260040161156d9190611850565b60405180910390fd5b505050565b606061158883835f611590565b905092915050565b6060814710156115d757306040517fcd7860590000000000000000000000000000000000000000000000000000000081526004016115ce9190611850565b60405180910390fd5b5f808573ffffffffffffffffffffffffffffffffffffffff1684866040516115ff9190612119565b5f6040518083038185875af1925050503d805f8114611639576040519150601f19603f3d011682016040523d82523d5f602084013e61163e565b606091505b509150915061164e868383611659565b925050509392505050565b60608261166e57611669826116e6565b6116de565b5f825114801561169457505f8473ffffffffffffffffffffffffffffffffffffffff163b145b156116d657836040517f9996b3150000000000000000000000000000000000000000000000000000000081526004016116cd9190611850565b60405180910390fd5b8190506116df565b5b9392505050565b5f815111156116f85780518082602001fd5b6040517f1425ea4200000000000000000000000000000000000000000000000000000000815260040160405180910390fd5b5f80fd5b5f819050919050565b6117408161172e565b811461174a575f80fd5b50565b5f8135905061175b81611737565b92915050565b5f602082840312156117765761177561172a565b5b5f6117838482850161174d565b91505092915050565b6117958161172e565b82525050565b5f6020820190506117ae5f83018461178c565b92915050565b5f73ffffffffffffffffffffffffffffffffffffffff82169050919050565b5f6117dd826117b4565b9050919050565b6117ed816117d3565b82525050565b5f8115159050919050565b611807816117f3565b82525050565b5f6080820190506118205f83018761178c565b61182d60208301866117e4565b61183a604083018561178c565b61184760608301846117fe565b95945050505050565b5f6020820190506118635f8301846117e4565b92915050565b5f60a08201905061187c5f8301886117e4565b611889602083018761178c565b611896604083018661178c565b6118a360608301856117e4565b6118b060808301846117fe565b9695505050505050565b6118c3816117d3565b81146118cd575f80fd5b50565b5f813590506118de816118ba565b92915050565b5f602082840312156118f9576118f861172a565b5b5f611906848285016118d0565b91505092915050565b5f805f606084860312156119265761192561172a565b5b5f611933868287016118d0565b93505060206119448682870161174d565b92505060406119558682870161174d565b9150509250925092565b5f82825260208201905092915050565b7f506c616e206e6f742061637469766500000000000000000000000000000000005f82015250565b5f6119a3600f8361195f565b91506119ae8261196f565b602082019050919050565b5f6020820190508181035f8301526119d081611997565b9050919050565b7f4e487b71000000000000000000000000000000000000000000000000000000005f52601160045260245ffd5b5f611a0e8261172e565b9150611a198361172e565b9250828202611a278161172e565b91508282048414831517611a3e57611a3d6119d7565b5b5092915050565b7f4e487b71000000000000000000000000000000000000000000000000000000005f52601260045260245ffd5b5f611a7c8261172e565b9150611a878361172e565b925082611a9757611a96611a45565b5b828204905092915050565b5f611aac8261172e565b9150611ab78361172e565b9250828203905081811115611acf57611ace6119d7565b5b92915050565b5f611adf8261172e565b91507fffffffffffffffffffffffffffffffffffffffffffffffffffffffffffffffff8203611b1157611b106119d7565b5b600182019050919050565b5f611b268261172e565b9150611b318361172e565b9250828201905080821115611b4957611b486119d7565b5b92915050565b5f604082019050611b625f83018561178c565b611b6f602083018461178c565b9392505050565b7f537562736372697074696f6e206e6f74206163746976650000000000000000005f82015250565b5f611baa60178361195f565b9150611bb582611b76565b602082019050919050565b5f6020820190508181035f830152611bd781611b9e565b9050919050565b7f5061796d656e74206e6f742064756500000000000000000000000000000000005f82015250565b5f611c12600f8361195f565b9150611c1d82611bde565b602082019050919050565b5f6020820190508181035f830152611c3f81611c06565b9050919050565b7f4e6f7420737562736372696265720000000000000000000000000000000000005f82015250565b5f611c7a600e8361195f565b9150611c8582611c46565b602082019050919050565b5f6020820190508181035f830152611ca781611c6e565b9050919050565b7f496e76616c696420737562736372697074696f6e0000000000000000000000005f82015250565b5f611ce260148361195f565b9150611ced82611cae565b602082019050919050565b5f6020820190508181035f830152611d0f81611cd6565b9050919050565b7f4e6f74206d65726368616e7400000000000000000000000000000000000000005f82015250565b5f611d4a600c8361195f565b9150611d5582611d16565b602082019050919050565b5f6020820190508181035f830152611d7781611d3e565b9050919050565b7f46656520746f6f206869676800000000000000000000000000000000000000005f82015250565b5f611db2600c8361195f565b9150611dbd82611d7e565b602082019050919050565b5f6020820190508181035f830152611ddf81611da6565b9050919050565b7f496e76616c69642066656520726563697069656e7400000000000000000000005f82015250565b5f611e1a60158361195f565b9150611e2582611de6565b602082019050919050565b5f6020820190508181035f830152611e4781611e0e565b9050919050565b7f496e76616c696420746f6b656e000000000000000000000000000000000000005f82015250565b5f611e82600d8361195f565b9150611e8d82611e4e565b602082019050919050565b5f6020820190508181035f830152611eaf81611e76565b9050919050565b7f416d6f756e74206d7573742062652067726561746572207468616e20300000005f82015250565b5f611eea601d8361195f565b9150611ef582611eb6565b602082019050919050565b5f6020820190508181035f830152611f1781611ede565b9050919050565b7f496e74657276616c206d7573742062652067726561746572207468616e2030005f82015250565b5f611f52601f8361195f565b9150611f5d82611f1e565b602082019050919050565b5f6020820190508181035f830152611f7f81611f46565b9050919050565b5f606082019050611f995f8301866117e4565b611fa6602083018561178c565b611fb3604083018461178c565b949350505050565b5f606082019050611fce5f8301866117e4565b611fdb60208301856117e4565b611fe8604083018461178c565b949350505050565b7f4e6f74206f776e657200000000000000000000000000000000000000000000005f82015250565b5f61202460098361195f565b915061202f82611ff0565b602082019050919050565b5f6020820190508181035f83015261205181612018565b9050919050565b612061816117f3565b811461206b575f80fd5b50565b5f8151905061207c81612058565b92915050565b5f602082840312156120975761209661172a565b5b5f6120a48482850161206e565b91505092915050565b5f81519050919050565b5f81905092915050565b5f5b838110156120de5780820151818401526020810190506120c3565b5f8484015250505050565b5f6120f3826120ad565b6120fd81856120b7565b935061210d8185602086016120c1565b80840191505092915050565b5f61212482846120e9565b91508190509291505056fea26469706673582212205d6e5ef56e7ce122a37f47489eab24266b66b3b74448f6b51b73917fc875284164736f6c63430008140033","linkReferences":{}},"methodIdentifiers":{"cancelPlan(uint256)":"80d6664c","cancelSubscription(uint256)":"21235083","cancelSubscriptionAsMerchant(uint256)":"3f259ce3","createPlan(address,uint256,uint256)":"e95fc90f","executePayment(uint256)":"162a0cf8","feeBps()":"24a9d853","feeRecipient()":"46904840","owner()":"8da5cb5b","planCount()":"382d39bb","plans(uint256)":"b1620616","setFeeBps(uint256)":"72c27b62","setFeeRecipient(address)":"e74b981b","subscribe(uint256)":"0f574ba7","subscriptionCount()":"173b6d90","subscriptions(uint256)":"2d5bbf60"},"id":4}